:08000000803102288731D82F5E
:10000A00643400340A34003401340034F20020002D
:10001A000F108F147208F0000730F036890B12287F
:10002A0070080139F100F10CF10C0F0871067F39E3
:10003A0071068F007208F0000630F036890B22280C
:10004A0070080139F100F10EF10DF10D0F0871067A
:10005A00BF3971068F007208F0000530F036890B3F
:10006A00332870080139F100F10EF10D0F087106FD
:10007A00DF3971068F007208F0000430F036890B00
:10008A00432870080139F100F10E0F087106EF39A3
:10009A0071068F000330890B5028000020000F14CE
:1000AA000D30890B5628000020000F107208F0004E
:1000BA000330F036890B5E2870080139F100F10C23
:1000CA00F10C0F0871067F3971068F007208F00073
:1000DA000230F036890B6E2870080139F100F10EF2
:1000EA00F10DF10D0F087106BF3971068F007236D6
:1000FA000139F000F00EF00D0F087006DF397006B6
:10010A008F0072080139F000F00E0F087006EF39FF
:10011A0070068F000330890B9028000020000F140E
:10012A000D30890B9628000020000F100D30890B26
:10013A009C2800003A30F0002330890BA228F00BEB
:10014A00A228000008002000C000C01FCD29C00955
:10015A00C00A4008803A123E031C51290A30F700AF
:10016A000030F8004008F200F301F21BF303643098
:10017A00F0000030F10091317A2180317108FA00E3
:10018A007008F9009231112280317708093E200067
:10019A00A4000030783DA5000330A6000030A70077
:1001AA0090317920803120002508850024088400B8
:1001BA00003084079830853D003FA800013FA90020
:1001CA00023FAA006430F7000030F8004008F90046
:1001DA00FA01F91BFA039231112280317708123E93
:1001EA002000A4000030783DA5000330A6000030AE
:1001FA00A700903179208031200025088500240845
:10020A008400003084079830853D003FAB00013FF1
:10021A00AC00023FAD009531392580312000280815
:10022A00BD002908BE002A08BF004008F200F301F9
:10023A00F21BF3030A30F0000030F10091317A2109
:10024A00803171082000A5007008A4000330A600C0
:10025A000030A700903179208031200025088500E0
:10026A0024088400003084079830853D003FA800A8
:10027A00013FA900023FAA003D08AB003E08AC00BE
:10028A003F08AD009531392520002808B800290813
:10029A00B9002A08BA0008004008803A753E031CD3
:1002AA00B0294008F200F301F21BF3030A30F00010
:1002BA000030F10091317A21803171082000A500C7
:1002CA007008A4000330A6000030A70090317920FE
:1002DA008031200025088500240884000030840726
:1002EA009830853D003FA800013FA900023FAA00BF
:1002FA000A30F7000030F8004008F900FA01F91B4B
:10030A00FA039231112280317708093E2000A400B5
:10031A000030783DA5000330A6000030A7009031D8
:10032A0079208031200025088500240884000030C7
:10033A0084079830853D003FAB00013FAC00023F87
:10034A00AD009531392520002808B8002908B900E0
:10035A002A08BA0008004008BB00BC013B08A400F8
:10036A003C08A5000330A6000030A7009031792090
:10037A00200025088500240884000030840798306E
:10038A00853D003FB800013FB900023FBA000800AE
:10039A004008803A123E031C702A0A30F7000030E7
:1003AA00F8004008F200F301F21BF3036430F00096
:1003BA000030F10091317A2180317108FA00700819
:1003CA00F9009231112280317708093E2000A400F9
:1003DA000030783DA5000330A6000030A700903118
:1003EA0079208031200025088500240884005530B2
:1003FA0084079830853D003FA800013FA900023FCD
:10040A00AA006430F7000030F8004008F900FA0149
:10041A00F91BFA039231112280317708123E20002B
:10042A00A4000030783DA5000330A6000030A700E4
:10043A009031792080312000250885002408840025
:10044A00553084079830853D003FAB00013FAC0032
:10045A00023FAD0095313925803120002808BD00C2
:10046A002908BE002A08BF004008F200F301F21B67
:10047A00F3030A30F0000030F10091317A21803123
:10048A0071082000A5007008A4000330A6000030FF
:10049A00A7009031792080312000250885002408A2
:1004AA008400553084079830853D003FA800013FFD
:1004BA00A900023FAA003D08AB003E08AC003F0875
:1004CA00AD009531392520002808B8002908B9005F
:1004DA002A08BA0008004008803A753E031CCF2A51
:1004EA004008F200F301F21BF3030A30F000003077
:1004FA00F10091317A21803171082000A50070083D
:10050A00A4000330A6000030A70090317920803182
:10051A002000250885002408840055308407983077
:10052A00853D003FA800013FA900023FAA000A300A
:10053A00F7000030F8004008F900FA01F91BFA0345
:10054A009231112280317708093E2000A400003040
:10055A00783DA5000330A6000030A700903179202D
:10056A00803120002508850024088400553084073E
:10057A009830853D003FAB00013FAC00023FAD0023
:10058A009531392520002808B8002908B9002A0819
:10059A00BA0008004008BB00BC013B08A4003C08A4
:1005AA00A5000330A6000030A70090317920200072
:1005BA002508850024088400553084079830853D35
:1005CA00003FB800013FB900023FBA00080021000D
:1005DA001908873970389900FC30990523008F0172
:1005EA008D0121008E0120008E019031612082311F
:1005FA0094318F248231013093314E238231643019
:10060A0086000130870034308400013085000630CE
:10061A002000E40016001A00E40B0F2BBF308600FE
:10062A00003087003A308400013085000630E4004B
:10063A0016001A00E40B1D2BB73086000030870025
:10064A0045308400013085000830E40016001A00A5
:10065A00E40B2B2B2200D101D2010030D300003051
:10066A00D4000030D5000030D6000030D70000306A
:10067A00D8000030D9000030DA000030DB006D0805
:10068A00C3006C08C2006B08C1006A08C0002030B1
:10069A002000E40064082200C400E201E3016308C8
:1006AA00803A2000E40080306402031D5F2B04308E
:1006BA002200620203187B2C90316B2082312000C9
:1006CA00E40022006208403E8600013087002000D4
:1006DA006408810022006208403E860001308700DB
:1006EA000108D03E2000E400FF3003180030E50086
:1006FA0022006235453E86000130870020006408EA
:10070A00C03F6508C13F22006235453E8600013080
:10071A0087001600FA3A2000E4001600FF3AE404C3
:10072A00031D9D2B01302200D1000030D2007B2C0A
:10073A0022006235453E860001308700403F200096
:10074A00E400413FE5006508803AE6008030660231
:10075A00031DB12B0A3064020318E52B220062350F
:10076A00453E860001308700403F2000E400413FBB
:10077A00E500E51BE52B7C30D9009830DA00220031
:10078A006208403E86000130870001082000E4002C
:10079A00E5016408DB006508DC0020308B31952315
:1007AA008231220062082000E4006408F30020304D
:1007BA00F4000130F5000130883100208231692CC3
:1007CA0022006208403E86000130870001082000AE
:1007DA00E40064082200C400DC01DD015D08803AFF
:1007EA002000E40080306402031DFE2B0230220048
:1007FA005C0203187B2C220062085C072000E400DC
:10080A00220063085D3D2000E5006508803AE600A5
:10081A0080306602031D132C033064020318202C57
:10082A00220062085C070907453E860001308700FE
:10083A000030C03FC13F220062092000E4002200CC
:10084A0063092000E500E40A0319E50A22005C08AE
:10085A0020006407E60022005D082000653DE700ED
:10086A006608033EE8000030673DE9006908803AFF
:10087A00EA0080306A02031D442C03306802031820
:10088A005A2C22006203FF3A5C070907063E343EEF
:10089A008600013087005C35343E840001308500D3
:1008AA00403F803F413F813F642C22005C35343E0B
:1008BA008600013087000130C03F0030C13F01305F
:1008CA00DC070030DD3DF32B01302200E207003067
:1008DA00E33D6308803A2000E40080306402031D8F
:1008EA00792C043022006202031C612B220051037E
:1008FA0052040319B82FCD01CE014E08803A2000C8
:10090A00E40080306402031D8D2C033022004D0266
:10091A0003180F2D22004D35453E86000130870011
:10092A00403F2000A600413FA70022004D35343E3B
:10093A00860001308700403F2000A400413FA50007
:10094A0090317920823120002508A9002408A800C6
:10095A009031B320823120002808C6002908C70038
:10096A002A08C800220056082000C9002200570899
:10097A002000CA00220058082000CB009531ED253E
:10098A008231200046082200D600200047082200B3
:10099A00D700200048082200D8000130CD070030D7
:1009AA00CE3D822C7C302000D9009830DA002F30DE
:1009BA00DB000030DC0020308B31952382311E2D84
:1009CA007C302000D9009830DA007830DB00003023
:1009DA00DC0020308B31952382311E2D7C302000A3
:1009EA00D9009830DA002D30DB000030DC002030EE
:1009FA008B31952382311E2D7C302000D90098300E
:100A0A00DA002B30DB000030DC0020308B319523FC
:100A1A0082311E2D22004408413A0319D72C033A89
:100A2A000319E52C013A0319F32C073A0319012D8E
:100A3A001E2D03302000E4006408F3002030F40087
:100A4A000130F50001308831002082312200E001B6
:100A5A00E1016108803A2000E40080306402031D4D
:100A6A00392D04302200600203184B2E90316B207E
:100A7A0082312000E40022006008403E86000130F6
:100A8A00870020006408810022006008403E86003A
:100A9A00013087000108D03E2000E400FF3003182F
:100AAA000030E50022006035453E860001308700AF
:100ABA0020006408C03F6508C13F22006035453EFA
:100ACA008600013087001600FA3A2000E40016007A
:100ADA00FF3AE404031D772D01302200D1000030D3
:100AEA00D2004B2E22006035453E86000130870039
:100AFA00403F2000E400413FE5006508803AE600F7
:100B0A0080306602031D8B2D0A3064020318C02D43
:100B1A0022006035453E860001308700403F2000B4
:100B2A00E400413FE500E51BC02D7C30D900983038
:100B3A00DA0022006008403E860001308700010882
:100B4A002000E400E5016408DB006508DC002030D1
:100B5A008B319523823122006008043E2000E40094
:100B6A006408F3002030F4000130F50001308831C8
:100B7A0000208231392E2200DE01DF015F08803A2F
:100B8A002000E40080306402031DCE2D02302200D2
:100B9A005E0203184B2E220060085E072000E40064
:100BAA00220061085F3D2000E5006508803AE60002
:100BBA0080306602031DE32D033064020318F02D12
:100BCA00220060085E070907453E8600013087005B
:100BDA000030C03FC13F220060092000E40022002B
:100BEA0061092000E500E40A0319E50A22005E080B
:100BFA0020006407E60022005F082000653DE70048
:100C0A006608033EE8000030673DE9006908803A5B
:100C1A00EA0080306A02031D142E033068020318AA
:100C2A002A2E22006003FF3A5E070907063E3A3E73
:100C3A008600013087005E353A3E84000130850027
:100C4A00403F803F413F813F342E22005E353A3E8D
:100C5A008600013087000130C03F0030C13F0130BB
:100C6A00DE070030DF3DC32D01302200E0070030EF
:100C7A00E13D6108803A2000E40080306402031DEF
:100C8A00492E043022006002031C3B2D220051032E
:100C9A0052040319B82FCF01D0015008803A20001E
:100CAA00E40080306402031D5D2E033022004F02EF
:100CBA000318902F22004F35453E860001308700E9
:100CCA00403F2000A600413FA70022004F353A3E90
:100CDA00860001308700403F2000A400413FA50064
:100CEA0090317920823120002508A9002408A80023
:100CFA009031B320823120002808C6002908C70095
:100D0A002A08C800220059082000C90022005A08EF
:100D1A002000CA0022005B082000CB009531ED2597
:100D2A008231200046082200D9002000470822000C
:100D3A00DA00200048082200DB000130CF0700302B
:100D4A00D03D522E22005908F8005A08F9005B08D3
:100D5A00FA005608FB005708FC005808FD009331BA
:100D6A00E723823178082200D3007908D4007A0870
:100D7A00D5007F302000D9009830DA0022005308CD
:100D8A002000DB00220054082000DC002200550865
:100D9A002000DD0020308B31952382319F2F2200E5
:100DAA0059082000A80022005A082000A9002200A1
:100DBA005B082000AA00220056082000AB0022008F
:100DCA0057082000AC00220058082000AD009531D9
:100DDA0039258231200028082200D3002000290862
:100DEA002200D40020002A082200D5007F302000EB
:100DFA00D9009830DA00220053082000DB002200D4
:100E0A0054082000DC00220055082000DD002030B4
:100E1A008B31952382319F2F220056082000C6006D
:100E2A00220057082000C700220058082000C800E6
:100E3A0022005908F0005A08F1005B08F2009031CC
:100E4A005920823170082000C9007108CA0072084E
:100E5A00CB009531ED258231200046082200D300CF
:100E6A00200047082200D400200048082200D500AC
:100E7A007F302000D9009830DA0022005308200081
:100E8A00DB00220054082000DC0022005508200064
:100E9A00DD0020308B31952382319F2F22005908A3
:100EAA002000C60022005A082000C70022005B0862
:100EBA002000C800220056082000C9002200570856
:100ECA002000CA00220058082000CB009531ED25E9
:100EDA008231200046082200D30020004708220061
:100EEA00D400200048082200D5007F302000D90015
:100EFA009830DA00220053082000DB002200540850
:100F0A002000DC00220055082000DD0020308B3153
:100F1A00952382319F2F22004408413A0319A72EB4
:100F2A00033A0319D42E013A0319112F073A031968
:100F3A00532F9F2FF3012030F4000130F5000230C7
:100F4A0088310020823152302000E5002B30E40045
:100F5A000030890BAE2FE40BAE2FE50BAE2F00004D
:100F6A00903149208231220051035204031DD62FA9
:100F7A00903149208231F301F30A2730F400983086
:100F8A00F500013088310020823129302000E50047
:100F9A009630E4007F30890BD02FE40BD02FE50B7D
:100FAA00D02F803102280530840080308500BF3080
:100FBA00860000308700063090314D20873153304B
:100FCA008400903085006430860001308700063046
:100FDA0090314D202100B701B801B901BA01BB0116
:100FEA00BC01BD01BE012200EA01EB01EC01ED01E9
:100FFA0020008231EC2AF70011287308803E0D2860
:10100A007308C03E0D287308943E0D287308D43E19
:10101A00F6007608F8001F287708013A0319022813
:10102A00033A03190528013A03190828073A03194C
:10103A000B281F28780893314E23883174088400BE
:10104A0075088500120003190800740884007508E1
:10105A008500000880310B2088310130F407003008
:10106A00F53D23287008F6007108F7007208F800A9
:10107A000310770D780DF90079082000A5002508DE
:10108A00031D50280030F3000030F2000030F10058
:10109A000030F00008007308F6007408F7007508BD
:1010AA00F8000310770D780DF9007908A4002408D8
:1010BA00031D68280030F3000030F2000030F10010
:1010CA000030F0000800F117FF30F005FF30F1059D
:1010DA000030F205F417FF30F305FF30F405003055
:1010EA00F5050030A3000030A2000030A100003056
:1010FA00A0007F30A50298302407F6007608A502E2
:10110A001830F6007608A4000130A035A10DA20D12
:10111A00A30D890B8A2875087202031D9A28740880
:10112A007102031D9A2873087002031CA32873080E
:10113A00F0027408F13B7508F23B20140130F035D7
:10114A00F10DF20D890BA4280130A402031D892890
:10115A00A51FCB282508803A973E0318BD280030E2
:10116A00F3000030F2000030F1000030F000080017
:10117A000130A336A20CA10CA00C890BBE280130A9
:10118A00F6007608A5070319E428BD2818302502B9
:10119A00031CE1280030F3000030F2000030F100B7
:1011AA000030F00008000130A035A10DA20DA30DFA
:1011BA00890BD9280130A5022508031DD828230840
:1011CA00F3002208F2002108F1002008F0000800CC
:1011DA0020000D108D140D158D150D1A05290530D9
:1011EA00F1000F30F000F130890BF928F00BF928E3
:1011FA00F10BF928000020000D1E002937300800E5
:10120A008D1A18290530F1000F30F000F130890BE2
:10121A000C29F00B0C29F10B0C29000020008D1E63
:10122A001329383008000D1B2B290530F1000F3027
:10123A00F000F130890B1F29F00B1F29F10B1F2930
:10124A00000020000D1F2629393008008D1B3E2979
:10125A000530F1000F30F000F130890B3229F00B24
:10126A003229F10B3229000020008D1F3929413023
:10127A0008000D148D100D158D150D1A5529053000
:10128A00F1000F30F000F130890B4929F00B4929A0
:10129A00F10B4929000020000D1E502934300800A6
:1012AA008D1A68290530F1000F30F000F130890BF2
:1012BA005C29F00B5C29F10B5C29000020008D1ED3
:1012CA006329353008000D1B7B290530F1000F30EA
:1012DA00F000F130890B6F29F00B6F29F10B6F29A0
:1012EA00000020000D1F7629363008008D1B8E293C
:1012FA000530F1000F30F000F130890B8229F00B34
:10130A008229F10B8229000020008D1F8929423091
:10131A0008000D148D140D118D150D1AA52905300F
:10132A00F1000F30F000F130890B9929F00B99295F
:10133A00F10B9929000020000D1EA0293130080068
:10134A008D1AB8290530F1000F30F000F130890B01
:10135A00AC29F00BAC29F10BAC29000020008D1E42
:10136A00B329323008000D1BCB290530F1000F30AC
:10137A00F000F130890BBF29F00BBF29F10BBF290F
:10138A00000020000D1FC629333008008D1BDE29FE
:10139A000530F1000F30F000F130890BD229F00B43
:1013AA00D229F10BD229000020008D1FD929433000
:1013BA0008000D148D140D158D110D1AF52905301F
:1013CA00F1000F30F000F130890BE929F00BE9291F
:1013DA00F10BE929000020000D1EF0292A3008002F
:1013EA008D1A082A0530F1000F30F000F130890B10
:1013FA00FC29F00BFC29F10BFC29000020008D1EB2
:10140A00032A303008000D1B1B2A0530F1000F306B
:10141A00F000F130890B0F2AF00B0F2AF10B0F2A7B
:10142A00000020000D1F162A233008008D1B2E2ACB
:10143A000530F1000F30F000F130890B222AF00B51
:10144A00222AF10B222A000020008D1F292A44306B
:10145A0008006E3008002000C5006E304502031CEB
:10146A00F02A0A30F7000030F8004508BB00BC013A
:10147A003B08F2003C08F3006430F0000030F10051
:10148A0091317A218A317108FA007008F900923193
:10149A0011228A317708093E2000A4000030783DE5
:1014AA00A5000330A6000030A700903179208A31C8
:1014BA00200025088500240884000030840798301D
:1014CA00853D003FA800013FA900023FAA00643001
:1014DA00F7000030F8004508BD00BE013D08F900DC
:1014EA003E08FA00923111228A317708123E200012
:1014FA00A4000030783DA5000330A6000030A70004
:10150A00903179208A31200025088500240884003A
:10151A00003084079830853D003FAB00013FAC00A6
:10152A00023FAD00953139258A3120002808C200D2
:10153A002908C3002A08C4004508BB00BC013B08AF
:10154A00F2003C08F3000A30F0000030F10091315B
:10155A007A218A3171082000A5007008A40003309E
:10156A00A6000030A700903179208A312000250892
:10157A00850024088400003084079830853D003FA8
:10158A00A800013FA900023FAA004208AB00430895
:10159A00AC004408AD00953139258A31200028086D
:1015AA00BF002908C0002A08C1000030A800003086
:1015BA00A9003F30AA003F08AB004008AC00410830
:1015CA00AD009531392520002808B8002908B9004E
:1015DA002A08BA0008000B304502031C682B45088C
:1015EA00BB00BC013B08F2003C08F3000A30F000E3
:1015FA000030F10091317A218A3171082000A5006A
:10160A007008A4000330A6000030A70090317920AA
:10161A008A312000250885002408840000308407C8
:10162A009830853D003FA800013FA900023FAA006B
:10163A000A30F7000030F8004508BD00BE013D0839
:10164A00F9003E08FA00923111228A317708093EE0
:10165A002000A4000030783DA5000330A600003029
:10166A00A700903179208A312000250885002408B6
:10167A008400003084079830853D003FAB00013F6D
:10168A00AC00023FAD00953139258A312000280887
:10169A00C2002908C3002A08C4000030A80000308C
:1016AA00A9003F30AA004208AB004308AC00440836
:1016BA00AD009531392520002808B8002908B9005D
:1016CA002A08BA0008000030A8000030A9003F30FC
:1016DA00AA004508BB00BC013B08A4003C08A500C1
:1016EA000330A6000030A700903179208A3120000B
:1016FA002508850024088400003084079830853D39
:10170A00003FAB00013FAC00023FAD0095313925E7
:10171A0020002808B8002908B9002A08BA000800D9
:10172A002100B6005B302000DE005E082100A30025
:10173A0020005A08DF005908DE00D90A0319DA0A1C
:10174A005E0884005F0885000008E0006008210048
:10175A00B50035080319FA2F25303506031DC92BA4
:10176A00A401A501CC2B2515E52B230886008701AA
:10177A0001082000DE005E082100B50002302000CA
:10178A00DE005E082100A30735082000EB2F2000A9
:10179A005A08DF005908DE00D90A0319DA0A5E0876
:1017AA0084005F08850000082100B500003A03198B
:1017BA00FA2F633A0319BA2B053A0319B82BC92B26
:1017CA00003024052000DE00073021002505200016
:1017DA00DF005E085F040319DC2F06302100A60033
:1017EA000030A700230886008701403FB200413F2E
:1017FA00B300423FB40003302000DE005E0821003F
:10180A00A3073208F0003308F1003408F200003070
:10181A00F3000030F4000030F5009031FD208B31E8
:10182A0003182C2C21003208F0003308F100340888
:10183A00F200903159208B3170082100B2007108F2
:10184A00B3007208B4000330A4040030A5042100D8
:10185A00AC01AD013408330432040319EC2CB23064
:10186A0086008701403F2000DE00413FDF00423F03
:10187A00E000433FE1000F30E136E00CDF0CDE0C04
:10188A00890B412CFF305E05E20000305F05E30062
:10189A006208823E2100AC00FF302000633D210037
:1018AA00AD00FF30AC07FF30AD3D03302000A4008F
:1018BA000030A50021002D082000A70021002C08D7
:1018CA002000A600903179208B31200025082100C4
:1018DA00AD00200024082100AC000A30F7000030D7
:1018EA00F8002D08FA002C08F900923111228B31E8
:1018FA0078082100AD007708AC00AD1F882CFF30B6
:10190A00AC07FF30AD3D2C03FF3A8031A8208B3164
:10191A00200038082100AE00200039082100AF005D
:10192A0020003A082100B00032082000A800210057
:10193A0033082000A900210034082000AA00210051
:10194A002E082000AB0021002F082000AC00210047
:10195A0030082000AD00953139258B312000280848
:10196A002100AE00200029082100AF0020002A082B
:10197A002100B0002E08F0002F08F1003008F20014
:10198A000030F3008030F4003F30F5009031FD2044
:10199A008B310318D52CFF302100AC07FF30EB2C1C
:1019AA0021002E08F0002F08F1003008F200003064
:1019BA00F3002030F4004130F5009031FD208B31E6
:1019CA00031CEC2C01302100AC070030AD3D210096
:1019DA002708803A2000DE0080305E02031DF82CC2
:1019EA000D30210026020318212D210026088A31F4
:1019FA0030228B3120003808C6003908C7003A085F
:101A0A00C800210032082000C90021003308200044
:101A1A00CA00210034082000CB009531ED258B3116
:101A2A00200046082100B200200047082100B30028
:101A3A00200048082100B40021002D08803A200027
:101A4A00DE0080305E02031D2D2D0A3021002C029B
:101A5A000318582D21003408330432040319A02D29
:101A6A0032082000C100210033082000C2002100F2
:101A7A0034082000C3009231C7228B312000440869
:101A8A00430442044104031DA02D21002D08803A7D
:101A9A002000DE0080305E02031D562D0230210038
:101AAA002C02031CA02D21002E08F0002F08F100A3
:101ABA003008F2007030F3008930F4004030F5004D
:101ACA009031FD208B3103186C2DF7306D2DF830D5
:101ADA002100AC07FF30AD3D2C088031A8208B31A6
:101AEA00200038082100AE00200039082100AF008C
:101AFA0020003A082100B0003208F0003308F10053
:101B0A003408F2002E08F3002F08F4003008F5001C
:101B1A00883137208B3173082100AB007208AA0084
:101B2A007108A9007008A8000030B2000030B300A4
:101B3A000030B400EE2D210032082000C10021003F
:101B4A0033082000C200210034082000C30092316B
:101B5A00C7228B31200044082100AB002000430833
:101B6A002100AA00200042082100A9002000410803
:101B7A002100A8002B08FB002A08FA002908F9000E
:101B8A002808F8009031D5208B3178082000D3003E
:101B9A007908D4007A08D500210032082000D6003E
:101BAA00210033082000D700210034082000D80083
:101BBA00903195208B31200053082100B20020007B
:101BCA0054082100B300200055082100B400AC01DC
:101BDA00AD01B501B50A0A30350603192B2E3508B1
:101BEA002000DE00DF01DE35DF0DDE35DF0D2D30B2
:101BFA005E07840098305F3D8500003FE000013FAA
:101C0A00E100023FE200033FE300630821002B02E8
:101C1A00031D1F2E2000620821002A02031D1F2E09
:101C2A002000610821002902031D1F2E20006008E0
:101C3A0021002802031C2B2E01302000DE005E0842
:101C4A002100B5070A303506031DF42D033024059B
:101C5A002000DE000030210025052000DF005E089C
:101C6A005F040319472E2D30DE0021003608860056
:101C7A000130870020005E0881000130DE005E0826
:101C8A002100B607FF302000DE005E082100B507FC
:101C9A00350A0319AF2E35082000DE00DF01DE35D4
:101CAA00DF0DDE35DF0D2D305E07840098305F3D95
:101CBA008500003FF000013FF100023FF200033FC0
:101CCA00F30021002B08F7002A08F6002908F5007E
:101CDA002808F4009131BF218B3173082100B1002B
:101CEA007208B0007108AF007008AE000030F3004F
:101CFA000030F2000030F1000A30F0003108F7003D
:101D0A003008F6002F08F5002E08F400913138212A
:101D1A008B3173082100B1007208B0007108AF005E
:101D2A007008AE002E08303E2000392E30302000D8
:101D3A00DE002100360886000130870020005E0898
:101D4A0081000130DE005E082100B607FF30AC07D3
:101D5A00FF30AD3D2D08803A2000DE0080305E0263
:101D6A00031DBA2E013021002C0203189B2E2100DC
:101D7A002708803A2000DE0080305E02031DC82E4C
:101D8A00093021002602031CCC2E0830CE2E210059
:101D9A0026082000DE005E082100B5003508200074
:101DAA00DE00DF01DE1BDF035E082100A602200041
:101DBA005F082100A73B35080319F32E2E302000B7
:101DCA00DE002100360886000130870020005E0808
:101DDA0081000130DE005E082100B6073508803137
:101DEA00A8208B31200038082100A00020003908E3
:101DFA002100A10020003A082100A20020082000AA
:101E0A00AB00210021082000AC002100220820009C
:101E1A00AD00210032082000A8002100330820006C
:101E2A00A900210034082000AA00953139258B31F8
:101E3A0020002808C1002908C2002A08C3009231DC
:101E4A00C7228B31200044082100AB002000430840
:101E5A002100AA00200042082100A9002000410810
:101E6A002100A800FF302000DE005E082100B5072F
:101E7A00350A0319D72F35082000DE00DF01DE35C9
:101E8A00DF0DDE35DF0D2D305E07840098305F3DB3
:101E9A008500003FF000013FF100023FF200033FDE
:101EAA00F30021002B08F7002A08F6002908F5009C
:101EBA002808F4009131BF218B3173082100B10049
:101ECA007208B0007108AF007008AE000030F3006D
:101EDA000030F2000030F1000A30F0003108F7005B
:101EEA003008F6002F08F5002E08F4009131382149
:101EFA008B3173082100B1007208B0007108AF007D
:101F0A007008AE002E08303E2000DE0021003608A0
:101F1A0086000130870020005E0881000130DE0063
:101F2A005E082100B60735082000DE00DF01DE3535
:101F3A00DF0DDE35DF0D2D305E07840098305F3D02
:101F4A008500003FF000013FF100023FF200033F2D
:101F5A00F30021002B08F7002A08F6002908F500EB
:101F6A002808F400913138218B3173082100AB0025
:101F7A007208AA007108A9007008362F30302000B4
:101F8A00DE002100360886000130870020005E0846
:101F9A0081000130DE005E082100B607FF30A60787
:101FAA00FF30A73D2608270403199D2BC32F0330B2
:101FBA00210024052000DE00003021002505200034
:101FCA00DF005E085F0403199D2B2D30DE0021001F
:101FDA00360886000130870020005E088100013043
:101FEA00DE005E082100B6079D2B36088600013008
:061FFA00870081010800D0
:10209200013093314E230800FE0012001E00FE0B99
:1020A2004E280034643400340A34003401340034DD
:1020B200720871047004031908008030F2060800E7
:1020C20020008D01F03021008D007F30F00070087B
:1020D200950508006E30F2007208F3006E30730648
:1020E200031D77288831ED2090316C287308080091
:1020F200FC01FD012000241C82282608FC07270879
:10210200FD3D0130A635A70D890B83280130A53688
:10211200A40C890B882824082504031D7B287D082C
:10212200A5007C08A40008002000550854045304AC
:1021320003199D288030D5065608C6005708C700E7
:102142005808C8005308C9005408CA005508CB00F3
:102152009531ED2520004608D3004708D4004808F1
:10216200D50008002000AD01A91FBE28A809A909B1
:10217200A80A0319A90AAD01AD0A2808F000290826
:10218200F100F2018E30AB002B08F3002D08AC00F9
:102192002C08F4009231632270082000A800710814
:1021A200A9007208AA0008008E30FC007C08FD001D
:1021B200FF307B050319E9280130FB36FA0CF90CD4
:1021C200F80C890BDE280130FC007C08FD07D928B9
:1021D2007808F0007908F1007A08F2007D08FC0026
:1021E2007C08F300F401923163227008F800710850
:1021F200F9007208FA000800F21F13297009F600AC
:102202007109F7007209F800F60A0319F70A0319AF
:10221200F80A00307607F0000030773DF100803098
:10222200783DF200F51F29297309F6007409F700B9
:102232007509F800F60A0319F70A0319F80A0030BB
:102242007607F3000030773DF4008030783DF500EA
:102252008030F2068030F50675087202031D080010
:1022620074087102031D08007308700208007308E5
:1022720072047104700403197129F901F90AF31B3C
:102282004E290130F035F10DF20DF30D890B432982
:102292000130F8007808F907402973087702031D16
:1022A2005C2972087602031D5C2971087502031D00
:1022B2005C2970087402031C66297008F402710814
:1022C200F53B7208F63B7308F73B0130F336F20C2C
:1022D200F10CF00C890B67290130F902031D4E291C
:1022E2007708F3007608F2007508F1007408F00030
:1022F2000800F601F31F8429F209F309F20A03190F
:10230200F30AF601F60AF11F8B29F009F109F00A26
:102312000319F10A700871040319B229F501F50ACB
:10232200F11B9D290130F035F10D890B9429013003
:10233200F4007408F507912971087302031DA3299B
:1023420070087202031CA9297008F2027108F33B9B
:102352000130F136F00C890BAA290130F502031D78
:102362009D2976080319BA29F209F309F20A031919
:10237200F30A7308F1007208F00008000030FC0054
:102382000030FB000030FA000030F90073087204DC
:10239200710470040319082AFD01FD0AF31BDD29EB
:1023A2000130F035F10DF20DF30D890BD229013018
:1023B200F8007808FD07CF290130F935FA0DFB0D39
:1023C200FC0D890BDE2973087702031DF2297208BE
:1023D2007602031DF22971087502031DF2297008A5
:1023E2007402031CFD297008F4027108F53B72089F
:1023F200F63B7308F73B79140130F336F20CF10C1B
:10240200F00C890BFE290130FD02031DDD297C0839
:10241200F3007B08F2007A08F1007908F000080066
:102422002000A101F81F1C2AF709F809F70A03196D
:10243200F80AA101A10AFA1F272AF909FA09F90AD9
:102442000319FA0A0130FB007B08A106A201A301CD
:10245200770878040319562AA001A00AF81B3B2A20
:102462000130F735F80D890B322A0130FB007B0869
:10247200A0072F2A0130A235A30D890B3C2A780828
:102482007A02031D462A77087902031C4D2A77082F
:10249200F9027808FA3B22140130F836F70C890B5E
:1024A2004E2A0130A002031D3B2A210803195E2A8D
:1024B200A209A309A20A0319A30A2308F800220801
:1024C200F7000800730803196B2A7208710470047C
:1024D200031D7C2A0030F0000030F1000030F200D1
:1024E20008000130F5007508F3070130F236F10CEF
:1024F200F00C890B772AFE3072050319952A722A8D
:102502000130F5007508F3070130F00700300318B9
:102512000130F107003003180130F2070130F236C2
:10252200F10CF00C890B902AFF3072050319A22AD4
:10253200812A0130F3020130F035F10DF20D890BE1
:102542009D2AF11BA82A0230730203189A2A7318D3
:10255200B02AFF30F0057F30F105FF30F20503109D
:10256200F30C7308F500F601F7011030F535F60D9E
:10257200F70D890BB72A7508F0047608F10477087D
:10258200F204740803190800F21708002000410839
:10259200C5004208C6004308C7000310460D470D98
:1025A200C8004808CE004E08031DE02A0030C400CF
:1025B2000030C3000030C2000030C10008004108F2
:1025C200C5004208C6004308C7001730C736C60C0C
:1025D200C50C890BE72A4508C8004808C900C2177C
:1025E200FF30C105FF30C2050030C3054108CA00F3
:1025F2004208CB004308CC00CD018E30CE02CE1F64
:102602001E2B4E08803A8F3E0318102B0030C40058
:102612000030C3000030C2000030C10008000130A9
:10262200CD36CC0CCB0CCA0C890B112B0130C5005A
:102632004508CE070319372B102B18304E02031C06
:10264200342B0030C4000030C3000030C200003020
:10265200C10008000130CA35CB0DCC0DCD0D890B60
:102662002C2B0130CE024E08031D2B2B49080319D7
:10267200452BCA09CB09CC09CD09CA0A0319CB0AD1
:102682000319CC0A0319CD0A4D08C4004C08C30033
:102692004B08C2004A08C1000800F20020000F10D7
:1026A2008F107208F0000730F036890B552B700836
:1026B2000139F100F10CF10C0F0871067F39710636
:1026C2008F007208F0000630F036890B652B700817
:1026D2000139F100F10EF10DF10D0F087106BF394C
:1026E20071068F007208F0000530F036890B762BE8
:1026F20070080139F100F10EF10D0F087106DF3992
:1027020071068F007208F0000430F036890B862BB8
:1027120070080139F100F10E0F087106EF397106E8
:102722008F000330890B932B000020000F140D3013
:10273200890B992B000020000F107208F000033063
:10274200F036890BA12B70080139F100F10CF10C64
:102752000F0871067F3971068F007208F00002308F
:10276200F036890BB12B70080139F100F10EF10D31
:10277200F10D0F087106BF3971068F0072360139EB
:10278200F000F00EF00D0F087006DF3970068F00B2
:1027920072080139F000F00E0F087006EF3970066A
:1027A2008F000330890BD32B000020000F140D3053
:1027B200890BD92B000020000F103A30F000233093
:1027C200890BE12BF00BE12B000008007B082000B5
:1027D200A0007C08A1007D08A2000310210D220D9B
:1027E200A3002308A8002808031DFE2B0030F800D0
:1027F2000030F9000030FA0008007808A0007908DB
:10280200A1007A08A2000310210D220DA3002308C3
:10281200A9002908031D142C0030F8000030F9002B
:102822000030FA0008000030A5000030A600003099
:10283200A70089302907A0002008A8027B08A00071
:102842007C08A1007D08A2001030A236A10CA00CC9
:10285200890B262C2008A3002308A9007808A000D1
:102862007908A1007A08A2001030A236A10CA00CAF
:10287200890B362C2008A3002308A9068030A0006B
:102882002008A905FC17FF30FB05FF30FC050030CE
:10289200FD05F917FF30F805FF30F9050030FA059C
:1028A2001830A0002008A4000130A535A60DA70D00
:1028B200890B562C7A087D02031D652C79087C024F
:1028C200031D652C78087B02031C6E2C7808FB0222
:1028D2007908FC3B7A08FD3B25140130FB35FC0DE1
:1028E200FD0D890B6F2C0130A402031D552C250808
:1028F200F0002608F1002708F2002808A0002008AE
:10290200F3002908A1002108F40092316322700823
:10291200F8007108F9007208FA00080021008F130C
:102922000F138F120F120F108F1020008F130F131F
:102932008F120F120F108F103A30F3002330890BD1
:10294200A02CF30BA02C00003A30F3002330890BAB
:10295200A82CF30BA82C00003A30F3002330890B8B
:10296200B02CF30BB02C00003A30F3002330890B6B
:10297200B82CF30BB82C00003A30F3002330890B4B
:10298200C02CF30BC02C00003A30F3002330890B2B
:10299200C82CF30BC82C0000F401F40A04307402B2
:1029A2000318FB2C20008F130F138F160F160F1016
:1029B2008F108F130F138F160F160F148F100D30E9
:1029C200890BE12C000020008F130F138F160F16B6
:1029D2000F108F103A30F3002330890BEE2CF30BDB
:1029E200EE2C00000130F3007308F4070430740287
:1029F200031CD32C20008F130F138F160F120F10EE
:102A02008F108F130F138F160F120F148F100D309C
:102A1200890B092D000020008F130F138F160F1240
:102A22000F108F103A30F3002330890B162DF30B61
:102A3200162D00002830F3007308F4007408933157
:102A42004E2394311030F3007308F400740893316C
:102A52004E239431F401F40A740893314E239431D5
:102A62000F30F3007308F400740893314E2308000A
:102A720020002808AE002908AF002A08B000031081
:102A82002F0D300DB1003108B2003208031D502D58
:102A92000030A8000030A9000030AA0008002B086E
:102AA200AE002C08AF002D08B00003102F0D300D22
:102AB200B1003108B7003708031D662D0030A800A9
:102AC2000030A9000030AA00080037087B3EAE00A3
:102AD2002E08B2072808AE002908AF002A08B00065
:102AE2001030B036AF0CAE0C890B722D2E08B1002F
:102AF2003108B7002B08AE002C08AF002D08B0003B
:102B02001030B036AF0CAE0C890B822D2E08B100FE
:102B12003108B7068030AE002E08B705A917AC17EA
:102B2200FF30AB05FF30AC050030AD050030B3001F
:102B32000030B4000030B5000730AE002E08B600F9
:102B4200281CA92D2B08B3072C08B43D2D08B53D30
:102B52000130AA36A90CA80C890BAA2D0130AB357D
:102B6200AC0DAD0D890BB02D0130B602031DA12DA8
:102B72000930AE002E08B600281CC52D2B08B3075D
:102B82002C08B43D2D08B53D0130AA36A90CA80C7D
:102B9200890BC62D0130B536B40CB30C890BCC2D84
:102BA2000130B602031DBD2D3308F0003408F100D8
:102BB2003508F2003208AE002E08F3003708AF00E5
:102BC2002F08F4009231632270082000A8007108D7
:102BD200A9007208AA00080020004608CC00470895
:102BE200CD004808CE0003104D0D4E0DCF004F080A
:102BF200D2004908CC004A08CD004B08CE00031091
:102C02004D0D4E0DCF004F08D10052080319152E5D
:102C12005108520203181C2E5203FF3A5107CC00EE
:102C220019304C02031C1C2E4908C6004A08C70072
:102C32004B08C80008005108031908005208510245
:102C420003182B2E5103FF3A5207CC0019304C02C5
:102C5200031808000630CC004C08D000C81BD0175F
:102C6200CB1B5017C717FF30C605FF30C705003012
:102C7200C805CA17FF30C905FF30CA050030CB05A9
:102C8200510852020318672E0130C935CA0DCB0D07
:102C9200890B462E0130D102510852060319622EC9
:102CA2000130D002500807390319622E452E013037
:102CB200C836C70CC60C890B592E0130CC004C0803
:102CC200D2075208510603198C2E582E520851026F
:102CD20003188C2E0130C635C70DC80D890B6C2E1A
:102CE2000130D202510852060319882E0130D00257
:102CF200500807390319882E6B2E0130CB36CA0CC7
:102D0200C90C890B7F2E0130CC004C08D107520828
:102D12005106031D7E2ED01F9E2EFF30C606FF30A9
:102D2200C706FF30C8060130C6070030031801305D
:102D3200C707003003180130C807501FB02EFF30FC
:102D4200C906FF30CA06FF30CB060130C907003082
:102D520003180130CA07003003180130CB07D00135
:102D62004608C9074708CA3D4808CB3DCB1FCB2EB2
:102D7200FF30C906FF30CA06FF30CB060130C90753
:102D8200003003180130CA07003003180130CB07A6
:102D9200D001D00A4908F0004A08F1004B08F200BD
:102DA2005208CC004C08F3005008CD004D08F40046
:102DB2009231632270082000C6007108C7007208B1
:102DC200C8000800703086008701403FF600413F8E
:102DD200F700423FF800433FF9000310780D790DE8
:102DE200FA007A082000A5002508031D012F0030F3
:102DF200F3000030F2000030F1000030F000080073
:102E0200733086008701403FF600413FF700423FA2
:102E1200F800433FF9000310780D790DFA007A08A3
:102E2200A4002408031D1E2F0030F3000030F2001E
:102E32000030F1000030F000080070308600870199
:102E420000308104413100308104413180308104FD
:102E5200413100308104703086008701FF308105E6
:102E62004131FF3081054131FF3081054131003070
:102E720081057330860087010030810441310030C2
:102E8200810441318030810441310030810473304A
:102E920086008701FF3081054131FF3081054131D4
:102EA200FF3081054131003081050030A300003040
:102EB200A2000030A1000030A0007F30A502A030A7
:102EC2002407F6007608A5022030F6007608A40052
:102ED2000130A035A10DA20DA30D890B6A2F73300D
:102EE20086008701403FF600413FF700423FF8006D
:102EF200433FF900703086008701403FFA00413FAE
:102F0200FB00423FFC00433FFD0079087D02031DA8
:102F1200942F78087C02031D942F77087B02031DEF
:102F2200942F76087A02031CB12F73308600870132
:102F3200403FF600413FF700423FF800433FF900AF
:102F42007030860087017608810241317708813B23
:102F520041317808813B41317908813B7D31201430
:102F620070308600870181354131810D4131810DFB
:102F72004131810D7D310130A402031D692FA51F4E
:102F8200DE2F2508803A9F3E0318D02F0030F30031
:102F92000030F2000030F1000030F0000800013093
:102FA200A336A20CA10CA00C890BD12F0130F60084
:102FB2007608A5070319F72FD02F20302502031C0E
:102FC200F42F0030F3000030F2000030F100003046
:102FD200F00008000130A035A10DA20DA30D890B50
:102FE200EC2F0130A5022508031DEB2F2308F30067
:102FF2002208F2002108F1002008F0000800003445
:1030020080343F34CD34CC343D34D73423343C3453
:10301200123483343A34B734D1343834C634273492
:103022003734383486343534C034D6343334CC343F
:103032002B343234703489343034E734DB342E3478
:10304200E5343C341E344234A2340D3443344C341F
:1030520045344134523400340134003400340034F5
:103062000A34003400340034643400340034003450
:10307200E83403340034003410342734003400348C
:10308200A034863401340034403442340F340034E6
:1030920080349634983400340034E134F534053405
:1030A2000034CA349A343B34003480343F34003420
:1030B200203441340034C834423400347A34443445
:1030C20040341C3446345034C334473424347434CA
:1030D2004934973418344B34BC34BE344C346B34DA
:1030E2006E344E340334153450347934AD34603494
:1030F200F33449347134253463340034253466346E
:02310200003497
:020000040001F9
:04000E00E4F9FFDF33
:00000001FF
